{
  "address": "0xe8602589175597668f7dE429422FED0A3B955cD9",
  "abi": [
    {
      "inputs": [],
      "stateMutability": "nonpayable",
      "type": "constructor"
    },
    {
      "inputs": [],
      "name": "HandlesAlreadySavedForRequestID",
      "type": "error"
    },
    {
      "inputs": [],
      "name": "InvalidKMSSignatures",
      "type": "error"
    },
    {
      "inputs": [],
      "name": "NoHandleFoundForRequestID",
      "type": "error"
    },
    {
      "inputs": [
        {
          "internalType": "address",
          "name": "owner",
          "type": "address"
        }
      ],
      "name": "OwnableInvalidOwner",
      "type": "error"
    },
    {
      "inputs": [
        {
          "internalType": "address",
          "name": "account",
          "type": "address"
        }
      ],
      "name": "OwnableUnauthorizedAccount",
      "type": "error"
    },
    {
      "anonymous": false,
      "inputs": [
        {
          "indexed": false,
          "internalType": "string",
          "name": "message",
          "type": "string"
        },
        {
          "indexed": false,
          "internalType": "uint256",
          "name": "value",
          "type": "uint256"
        }
      ],
      "name": "Debug",
      "type": "event"
    },
    {
      "anonymous": false,
      "inputs": [
        {
          "indexed": true,
          "internalType": "uint256",
          "name": "requestID",
          "type": "uint256"
        }
      ],
      "name": "DecryptionFulfilled",
      "type": "event"
    },
    {
      "anonymous": false,
      "inputs": [
        {
          "indexed": false,
          "internalType": "uint256",
          "name": "requestId",
          "type": "uint256"
        },
        {
          "indexed": true,
          "internalType": "address",
          "name": "initiator",
          "type": "address"
        }
      ],
      "name": "DecryptionRequested",
      "type": "event"
    },
    {
      "anonymous": false,
      "inputs": [
        {
          "indexed": true,
          "internalType": "address",
          "name": "previousOwner",
          "type": "address"
        },
        {
          "indexed": true,
          "internalType": "address",
          "name": "newOwner",
          "type": "address"
        }
      ],
      "name": "OwnershipTransferred",
      "type": "event"
    },
    {
      "anonymous": false,
      "inputs": [
        {
          "indexed": true,
          "internalType": "address",
          "name": "owner",
          "type": "address"
        },
        {
          "indexed": true,
          "internalType": "uint256",
          "name": "taskId",
          "type": "uint256"
        }
      ],
      "name": "TaskCreated",
      "type": "event"
    },
    {
      "anonymous": false,
      "inputs": [
        {
          "indexed": true,
          "internalType": "uint256",
          "name": "requestId",
          "type": "uint256"
        },
        {
          "indexed": true,
          "internalType": "address",
          "name": "user",
          "type": "address"
        },
        {
          "indexed": false,
          "internalType": "uint64",
          "name": "title",
          "type": "uint64"
        },
        {
          "indexed": false,
          "internalType": "uint64",
          "name": "dueDate",
          "type": "uint64"
        },
        {
          "indexed": false,
          "internalType": "uint8",
          "name": "priority",
          "type": "uint8"
        }
      ],
      "name": "TaskDecrypted",
      "type": "event"
    },
    {
      "anonymous": false,
      "inputs": [
        {
          "indexed": true,
          "internalType": "uint256",
          "name": "taskId",
          "type": "uint256"
        },
        {
          "indexed": true,
          "internalType": "address",
          "name": "owner",
          "type": "address"
        },
        {
          "indexed": true,
          "internalType": "address",
          "name": "recipient",
          "type": "address"
        }
      ],
      "name": "TaskShared",
      "type": "event"
    },
    {
      "inputs": [
        {
          "internalType": "uint256",
          "name": "requestId",
          "type": "uint256"
        },
        {
          "internalType": "bytes",
          "name": "cleartexts",
          "type": "bytes"
        },
        {
          "internalType": "bytes",
          "name": "decryptionProof",
          "type": "bytes"
        }
      ],
      "name": "callbackCount",
      "outputs": [],
      "stateMutability": "nonpayable",
      "type": "function"
    },
    {
      "inputs": [
        {
          "internalType": "uint256",
          "name": "taskIndex",
          "type": "uint256"
        }
      ],
      "name": "completeTask",
      "outputs": [],
      "stateMutability": "nonpayable",
      "type": "function"
    },
    {
      "inputs": [
        {
          "internalType": "externalEuint64",
          "name": "encryptedTitle",
          "type": "bytes32"
        },
        {
          "internalType": "externalEuint64",
          "name": "encryptedDueDate",
          "type": "bytes32"
        },
        {
          "internalType": "externalEuint8",
          "name": "encryptedPriority",
          "type": "bytes32"
        },
        {
          "internalType": "bytes",
          "name": "inputProof",
          "type": "bytes"
        }
      ],
      "name": "createTask",
      "outputs": [],
      "stateMutability": "payable",
      "type": "function"
    },
    {
      "inputs": [
        {
          "internalType": "externalEuint64",
          "name": "encryptedTitle",
          "type": "bytes32"
        },
        {
          "internalType": "externalEuint64",
          "name": "encryptedDueDate",
          "type": "bytes32"
        },
        {
          "internalType": "externalEuint8",
          "name": "encryptedPriority",
          "type": "bytes32"
        },
        {
          "internalType": "externalEuint64",
          "name": "encryptedNumericId",
          "type": "bytes32"
        },
        {
          "internalType": "bytes",
          "name": "inputProof",
          "type": "bytes"
        }
      ],
      "name": "createTaskWithNumbers",
      "outputs": [],
      "stateMutability": "payable",
      "type": "function"
    },
    {
      "inputs": [
        {
          "internalType": "externalEuint64",
          "name": "encryptedTitle",
          "type": "bytes32"
        },
        {
          "internalType": "externalEuint64",
          "name": "encryptedDescription",
          "type": "bytes32"
        },
        {
          "internalType": "externalEuint64",
          "name": "encryptedDueDate",
          "type": "bytes32"
        },
        {
          "internalType": "externalEuint8",
          "name": "encryptedPriority",
          "type": "bytes32"
        },
        {
          "internalType": "bytes",
          "name": "inputProof",
          "type": "bytes"
        }
      ],
      "name": "createTaskWithText",
      "outputs": [],
      "stateMutability": "payable",
      "type": "function"
    },
    {
      "inputs": [
        {
          "internalType": "uint256",
          "name": "taskId",
          "type": "uint256"
        }
      ],
      "name": "deleteTaskById",
      "outputs": [],
      "stateMutability": "nonpayable",
      "type": "function"
    },
    {
      "inputs": [
        {
          "internalType": "uint256",
          "name": "taskIndex",
          "type": "uint256"
        },
        {
          "internalType": "externalEuint64",
          "name": "newEncryptedTitle",
          "type": "bytes32"
        },
        {
          "internalType": "externalEuint64",
          "name": "newEncryptedDueDate",
          "type": "bytes32"
        },
        {
          "internalType": "externalEuint8",
          "name": "newEncryptedPriority",
          "type": "bytes32"
        },
        {
          "internalType": "bytes",
          "name": "inputProof",
          "type": "bytes"
        }
      ],
      "name": "editTask",
      "outputs": [],
      "stateMutability": "nonpayable",
      "type": "function"
    },
    {
      "inputs": [
        {
          "internalType": "address",
          "name": "recipient",
          "type": "address"
        }
      ],
      "name": "getSharedTasks",
      "outputs": [
        {
          "internalType": "uint256[]",
          "name": "",
          "type": "uint256[]"
        }
      ],
      "stateMutability": "view",
      "type": "function"
    },
    {
      "inputs": [
        {
          "internalType": "address",
          "name": "owner_",
          "type": "address"
        },
        {
          "internalType": "uint256",
          "name": "index",
          "type": "uint256"
        }
      ],
      "name": "getTaskId",
      "outputs": [
        {
          "internalType": "uint256",
          "name": "",
          "type": "uint256"
        }
      ],
      "stateMutability": "view",
      "type": "function"
    },
    {
      "inputs": [
        {
          "internalType": "address",
          "name": "owner_",
          "type": "address"
        },
        {
          "internalType": "uint256",
          "name": "taskId",
          "type": "uint256"
        }
      ],
      "name": "getTaskIndex",
      "outputs": [
        {
          "internalType": "uint256",
          "name": "",
          "type": "uint256"
        }
      ],
      "stateMutability": "view",
      "type": "function"
    },
    {
      "inputs": [
        {
          "internalType": "address",
          "name": "user",
          "type": "address"
        }
      ],
      "name": "getTasks",
      "outputs": [
        {
          "components": [
            {
              "internalType": "euint64",
              "name": "title",
              "type": "bytes32"
            },
            {
              "internalType": "euint64",
              "name": "description",
              "type": "bytes32"
            },
            {
              "internalType": "euint64",
              "name": "dueDate",
              "type": "bytes32"
            },
            {
              "internalType": "euint8",
              "name": "priority",
              "type": "bytes32"
            },
            {
              "internalType": "euint64",
              "name": "numericId",
              "type": "bytes32"
            },
            {
              "internalType": "enum TaskManager.TaskStatus",
              "name": "status",
              "type": "uint8"
            }
          ],
          "internalType": "struct TaskManager.Task[]",
          "name": "",
          "type": "tuple[]"
        }
      ],
      "stateMutability": "view",
      "type": "function"
    },
    {
      "inputs": [
        {
          "internalType": "address",
          "name": "",
          "type": "address"
        },
        {
          "internalType": "uint256",
          "name": "",
          "type": "uint256"
        }
      ],
      "name": "indexToTaskId",
      "outputs": [
        {
          "internalType": "uint256",
          "name": "",
          "type": "uint256"
        }
      ],
      "stateMutability": "view",
      "type": "function"
    },
    {
      "inputs": [
        {
          "internalType": "address",
          "name": "",
          "type": "address"
        },
        {
          "internalType": "address",
          "name": "",
          "type": "address"
        },
        {
          "internalType": "uint256",
          "name": "",
          "type": "uint256"
        }
      ],
      "name": "isTaskSharedWith",
      "outputs": [
        {
          "internalType": "bool",
          "name": "",
          "type": "bool"
        }
      ],
      "stateMutability": "view",
      "type": "function"
    },
    {
      "inputs": [
        {
          "internalType": "address",
          "name": "",
          "type": "address"
        }
      ],
      "name": "lastDueSoonCount",
      "outputs": [
        {
          "internalType": "uint32",
          "name": "",
          "type": "uint32"
        }
      ],
      "stateMutability": "view",
      "type": "function"
    },
    {
      "inputs": [],
      "name": "owner",
      "outputs": [
        {
          "internalType": "address",
          "name": "",
          "type": "address"
        }
      ],
      "stateMutability": "view",
      "type": "function"
    },
    {
      "inputs": [],
      "name": "protocolId",
      "outputs": [
        {
          "internalType": "uint256",
          "name": "",
          "type": "uint256"
        }
      ],
      "stateMutability": "pure",
      "type": "function"
    },
    {
      "inputs": [],
      "name": "renounceOwnership",
      "outputs": [],
      "stateMutability": "nonpayable",
      "type": "function"
    },
    {
      "inputs": [
        {
          "internalType": "uint256",
          "name": "",
          "type": "uint256"
        }
      ],
      "name": "requestInitiator",
      "outputs": [
        {
          "internalType": "address",
          "name": "",
          "type": "address"
        }
      ],
      "stateMutability": "view",
      "type": "function"
    },
    {
      "inputs": [
        {
          "internalType": "uint256",
          "name": "taskIndex",
          "type": "uint256"
        },
        {
          "internalType": "address",
          "name": "originalOwner",
          "type": "address"
        }
      ],
      "name": "requestSharedTaskDecryption",
      "outputs": [],
      "stateMutability": "nonpayable",
      "type": "function"
    },
    {
      "inputs": [
        {
          "internalType": "uint256",
          "name": "taskId",
          "type": "uint256"
        },
        {
          "internalType": "address",
          "name": "originalOwner",
          "type": "address"
        }
      ],
      "name": "requestSharedTaskDecryptionById",
      "outputs": [],
      "stateMutability": "nonpayable",
      "type": "function"
    },
    {
      "inputs": [
        {
          "internalType": "uint256",
          "name": "taskIndex",
          "type": "uint256"
        }
      ],
      "name": "requestTaskDecryption",
      "outputs": [],
      "stateMutability": "nonpayable",
      "type": "function"
    },
    {
      "inputs": [
        {
          "internalType": "uint256",
          "name": "taskId",
          "type": "uint256"
        }
      ],
      "name": "requestTaskDecryptionById",
      "outputs": [],
      "stateMutability": "nonpayable",
      "type": "function"
    },
    {
      "inputs": [
        {
          "internalType": "externalEuint64",
          "name": "encryptedTimeMargin",
          "type": "bytes32"
        },
        {
          "internalType": "bytes",
          "name": "inputProof",
          "type": "bytes"
        }
      ],
      "name": "requestTasksDueSoonCount",
      "outputs": [],
      "stateMutability": "nonpayable",
      "type": "function"
    },
    {
      "inputs": [
        {
          "internalType": "uint256",
          "name": "_newFee",
          "type": "uint256"
        }
      ],
      "name": "setFee",
      "outputs": [],
      "stateMutability": "nonpayable",
      "type": "function"
    },
    {
      "inputs": [
        {
          "internalType": "uint256",
          "name": "taskIndex",
          "type": "uint256"
        },
        {
          "internalType": "address",
          "name": "recipient",
          "type": "address"
        }
      ],
      "name": "shareTask",
      "outputs": [],
      "stateMutability": "nonpayable",
      "type": "function"
    },
    {
      "inputs": [
        {
          "internalType": "uint256",
          "name": "taskId",
          "type": "uint256"
        },
        {
          "internalType": "address",
          "name": "recipient",
          "type": "address"
        }
      ],
      "name": "shareTaskById",
      "outputs": [],
      "stateMutability": "nonpayable",
      "type": "function"
    },
    {
      "inputs": [
        {
          "internalType": "address",
          "name": "",
          "type": "address"
        },
        {
          "internalType": "uint256",
          "name": "",
          "type": "uint256"
        }
      ],
      "name": "sharedTasks",
      "outputs": [
        {
          "internalType": "uint256",
          "name": "",
          "type": "uint256"
        }
      ],
      "stateMutability": "view",
      "type": "function"
    },
    {
      "inputs": [],
      "name": "taskCreationFee",
      "outputs": [
        {
          "internalType": "uint256",
          "name": "",
          "type": "uint256"
        }
      ],
      "stateMutability": "view",
      "type": "function"
    },
    {
      "inputs": [
        {
          "internalType": "uint256",
          "name": "requestId",
          "type": "uint256"
        },
        {
          "internalType": "bytes",
          "name": "cleartexts",
          "type": "bytes"
        },
        {
          "internalType": "bytes",
          "name": "decryptionProof",
          "type": "bytes"
        }
      ],
      "name": "taskDecryptionCallback",
      "outputs": [],
      "stateMutability": "nonpayable",
      "type": "function"
    },
    {
      "inputs": [
        {
          "internalType": "address",
          "name": "",
          "type": "address"
        },
        {
          "internalType": "uint256",
          "name": "",
          "type": "uint256"
        }
      ],
      "name": "taskIdToIndex",
      "outputs": [
        {
          "internalType": "uint256",
          "name": "",
          "type": "uint256"
        }
      ],
      "stateMutability": "view",
      "type": "function"
    },
    {
      "inputs": [
        {
          "internalType": "address",
          "name": "",
          "type": "address"
        },
        {
          "internalType": "uint256",
          "name": "",
          "type": "uint256"
        }
      ],
      "name": "tasks",
      "outputs": [
        {
          "internalType": "euint64",
          "name": "title",
          "type": "bytes32"
        },
        {
          "internalType": "euint64",
          "name": "description",
          "type": "bytes32"
        },
        {
          "internalType": "euint64",
          "name": "dueDate",
          "type": "bytes32"
        },
        {
          "internalType": "euint8",
          "name": "priority",
          "type": "bytes32"
        },
        {
          "internalType": "euint64",
          "name": "numericId",
          "type": "bytes32"
        },
        {
          "internalType": "enum TaskManager.TaskStatus",
          "name": "status",
          "type": "uint8"
        }
      ],
      "stateMutability": "view",
      "type": "function"
    },
    {
      "inputs": [
        {
          "internalType": "address",
          "name": "newOwner",
          "type": "address"
        }
      ],
      "name": "transferOwnership",
      "outputs": [],
      "stateMutability": "nonpayable",
      "type": "function"
    },
    {
      "inputs": [],
      "name": "withdraw",
      "outputs": [],
      "stateMutability": "nonpayable",
      "type": "function"
    }
  ],
  "transactionHash": "0xe6fc1eb3974d8d91b5bb35cd1ae37e18ac66c65b738dbb1e33dc8decc0647491",
  "args": [],
  "numDeployments": 10,
  "solcInputHash": "a37c76a9a9aa1995dfbc99f3d5acc0ce",
  "bytecode": "0x6080604052655af3107a40006009553480156200001a575f80fd5b503362000198620000bc604080516080810182525f808252602082018190529181018290526060810191909152506040805160808101825273687820221192c5b662b25367f70076a37bc79b6c815273848b0066793bcc60346da1f49049357399b8d595602082015273a02cda4ca3a71d7c46997716f4283aa851c2881291810191909152731364cbbf2cdf5032c47d8226a6f6fbd2afcdacac606082015290565b80517f9e7b61f58c47dc699ac88507c4f5bb9f121c03808c5676a8078fe583e464970080546001600160a01b03199081166001600160a01b039384161790915560208301517f9e7b61f58c47dc699ac88507c4f5bb9f121c03808c5676a8078fe583e46497018054831691841691909117905560408301517f9e7b61f58c47dc699ac88507c4f5bb9f121c03808c5676a8078fe583e46497028054831691841691909117905560608301517f9e7b61f58c47dc699ac88507c4f5bb9f121c03808c5676a8078fe583e46497038054909216921691909117905550565b6001600160a01b038116620001c657604051631e4fbdf760e01b81525f600482015260240160405180910390fd5b620001d181620001d8565b5062000227565b5f80546001600160a01b038381166001600160a01b0319831681178455604051919092169283917f8be0079c531659141344cd1fd0a4f28419497f9722a3daafe3b4186f6b6457e09190a35050565b613d2d80620002355f395ff3fe6080604052600436106101f5575f3560e01c8063715018a611610117578063d20c2fce116100ac578063e8dc79771161007c578063f2fde38b11610062578063f2fde38b1461065e578063f738ebb91461067d578063f85b39991461069c575f80fd5b8063e8dc797714610620578063ec74cd191461063f575f80fd5b8063d20c2fce14610595578063da1f12ab146105c1578063e1e29558146105d5578063e7b80239146105f4575f80fd5b80638d2dbf4b116100e75780638d2dbf4b146104fa5780638da5cb5b14610519578063934dd06a14610535578063a495970014610576575f80fd5b8063715018a61461046e5780637f633e8514610482578063806f1c0914610495578063829b6c59146104b4575f80fd5b80633ccfd60b1161018d578063621048fe1161015d578063621048fe146103e057806369fe0e2d146103ff5780636a554c411461041e5780637149d2e41461043d575f80fd5b80633ccfd60b1461033d5780634029cf6d146103515780634d075ce71461039557806356dea27c146103aa575f80fd5b80631a511d99116101c85780631a511d99146102cd5780631b5ba9e7146102ec578063210f32c41461030b5780632170cd381461031e575f80fd5b806302280601146101f9578063083ffe631461024a578063122940df1461026b5780631420594d1461027e575b5f80fd5b348015610204575f80fd5b5061022d6102133660046134b3565b60066020525f90815260409020546001600160a01b031681565b6040516001600160a01b0390911681526020015b60405180910390f35b348015610255575f80fd5b50610269610264366004613567565b6106bb565b005b610269610279366004613614565b6107a8565b348015610289575f80fd5b506102bd61029836600461368b565b600860209081525f938452604080852082529284528284209052825290205460ff1681565b6040519015158152602001610241565b3480156102d8575f80fd5b506102696102e73660046136c4565b610c36565b3480156102f7575f80fd5b506102696103063660046136c4565b610e8a565b6102696103193660046136ee565b611085565b348015610329575f80fd5b50610269610338366004613753565b6115ae565b348015610348575f80fd5b5061026961180c565b34801561035c575f80fd5b5061038761036b36600461379b565b600460209081525f928352604080842090915290825290205481565b604051908152602001610241565b3480156103a0575f80fd5b5061038760095481565b3480156103b5575f80fd5b506103876103c436600461379b565b600360209081525f928352604080842090915290825290205481565b3480156103eb575f80fd5b506102696103fa3660046136c4565b6118b7565b34801561040a575f80fd5b506102696104193660046134b3565b61199c565b348015610429575f80fd5b506102696104383660046136ee565b6119a9565b348015610448575f80fd5b5061045c61045736600461379b565b611bca565b604051610241969594939291906137eb565b348015610479575f80fd5b50610269611c1d565b6102696104903660046136ee565b611c30565b3480156104a0575f80fd5b506102696104af3660046136c4565b61211b565b3480156104bf575f80fd5b506104e56104ce36600461381a565b60056020525f908152604090205463ffffffff1681565b60405163ffffffff9091168152602001610241565b348015610505575f80fd5b5061038761051436600461379b565b6121a1565b348015610524575f80fd5b505f546001600160a01b031661022d565b348015610540575f80fd5b5061038761054f36600461379b565b6001600160a01b03919091165f908152600360209081526040808320938352929052205490565b348015610581575f80fd5b506102696105903660046134b3565b6121cb565b3480156105a0575f80fd5b506105b46105af36600461381a565b612289565b6040516102419190613833565b3480156105cc575f80fd5b50612711610387565b3480156105e0575f80fd5b506102696105ef3660046134b3565b6122f2565b3480156105ff575f80fd5b5061061361060e36600461381a565b6123a5565b6040516102419190613876565b34801561062b575f80fd5b5061026961063a3660046134b3565b612480565b34801561064a575f80fd5b50610269610659366004613567565b61263d565b348015610669575f80fd5b5061026961067836600461381a565b612760565b348015610688575f80fd5b506102696106973660046134b3565b61279a565b3480156106a7575f80fd5b506103876106b636600461379b565b6129bf565b6106c68383836129ea565b5f838152600660205260409020546001600160a01b0316806107415760405162461bcd60e51b815260206004820152602960248201527f52657175657374204944206e6f7420666f756e64206f7220616c7265616479206044820152681c1c9bd8d95cdcd95960ba1b60648201526084015b60405180910390fd5b5f8380602001905181019061075691906138f9565b6001600160a01b03929092165f908152600560209081526040808320805463ffffffff191663ffffffff9096169590951790945595815260069095525090922080546001600160a01b03191690555050565b604080518181526012818301527f6372656174655461736b2073746172746564000000000000000000000000000060608201525f602082015290515f80516020613cd88339815191529181900360800190a160095434146108405760405162461bcd60e51b8152602060048201526012602482015271125b98dbdc9c9958dd08199959481cd95b9d60721b6044820152606401610738565b60408051818152600b818301526a1199594818da1958dad95960aa1b60608201526001602082015290515f80516020613cd88339815191529181900360800190a15f6108c18684848080601f0160208091040260200160405190810160405280939291908181526020018383808284375f92019190915250612a5392505050565b604080518181526017818301527f66726f6d45787465726e616c207469746c6520646f6e6500000000000000000060608201526002602082015290519192505f80516020613cd8833981519152919081900360800190a15f6109588685858080601f0160208091040260200160405190810160405280939291908181526020018383808284375f92019190915250612a5392505050565b90505f80516020613cd88339815191526003604051610977919061391c565b60405180910390a15f6109bf8686868080601f0160208091040260200160405190810160405280939291908181526020018383808284375f92019190915250612a6792505050565b90505f80516020613cd883398151915260046040516109de9190613966565b60405180910390a15f6040518060c00160405280858152602001610a015f612a74565b8152602001848152602001838152602001610a1b5f612a74565b81526020015f9052335f9081526001602081815260408084208054808501825590855293829020855160069095020193845590840151838301558301516002830155606083015160038301556080830151600483015560a083015160058301805494955085949192909160ff1916908381811115610a9b57610a9b6137c3565b021790555050505f60025f8154610ab1906139b6565b9182905550335f9081526001602081905260408220549293509091610ad691906139ce565b335f8181526003602090815260408083208584528252808320879055838352600482528083208784529091528082208490555192935084927fb1c0ef93ef5afc0800a5789b004fdaf5931873276c7ccb409e7d1a310906886a9190a35f80516020613cd88339815191526005604051610b4f91906139e1565b60405180910390a1335f908152600160208190526040822080549091610b74916139ce565b81548110610b8457610b84613a1d565b905f5260205f2090600602019050610b9f815f015433612a8a565b50610bae816002015433612a8a565b50610bbd816003015433612a8a565b50610bcc816001015433612a8a565b508054610bd890612a9c565b50610be68160020154612a9c565b50610bf48160030154612a9c565b50610c028160010154612a9c565b505f80516020613cd88339815191526006604051610c209190613a31565b60405180910390a1505050505050505050505050565b335f9081526008602090815260408083206001600160a01b0385168452825280832085845290915290205460ff16610cb05760405162461bcd60e51b815260206004820152601b60248201527f5461736b206973206e6f7420736861726564207769746820796f7500000000006044820152606401610738565b6001600160a01b0381165f81815260046020908152604080832086845282528083205493835260019091529020548110610d2c5760405162461bcd60e51b815260206004820152601d60248201527f5461736b20646f6573206e6f7420657869737420666f72206f776e65720000006044820152606401610738565b6001600160a01b0382165f908152600160205260408120805483908110610d5557610d55613a1d565b5f918252602080832060408051600480825260a082019092526006949094029091019450908201608080368337019050508254909150815f81518110610d9d57610d9d613a1d565b6020908102919091010152600282015481600181518110610dc057610dc0613a1d565b6020908102919091010152600382015481600281518110610de357610de3613a1d565b6020908102919091010152600182015481600381518110610e0657610e06613a1d565b60209081029190910101525f610e238263ec74cd1960e01b612aab565b5f818152600660205260409081902080546001600160a01b031916339081179091559051919250907f0fd631f136845886c6a8df7897d4470f9519ee3afcdbeb05ed3855cdcbc6e2a990610e7a9084815260200190565b60405180910390a2505050505050565b335f81815260046020908152604080832086845282528083205493835260019091529020548110610ef35760405162461bcd60e51b815260206004820152601360248201527215185cdac8191bd95cc81b9bdd08195e1a5cdd606a1b6044820152606401610738565b335f908152600160205260408120805483908110610f1357610f13613a1d565b5f918252602082206006909102019150600582015460ff166001811115610f3c57610f3c6137c3565b14610f895760405162461bcd60e51b815260206004820152601660248201527f5461736b20616c726561647920636f6d706c65746564000000000000000000006044820152606401610738565b8054610f959084612a8a565b50610fa4816001015484612a8a565b50610fb3816002015484612a8a565b50610fc2816003015484612a8a565b506001600160a01b0383165f908152600860209081526040808320338452825280832087845290915290205460ff16611048576001600160a01b0383165f818152600760209081526040808320805460018181018355918552838520018990559383526008825280832033845282528083208884529091529020805460ff191690911790555b6040516001600160a01b03841690339086907f6c360e48939a0eaa016282cf725ad4e38e51ad1bb67ff15e393797766083750d905f90a450505050565b60408051818152601d818301527f6372656174655461736b576974684e756d62657273207374617274656400000060608201525f602082015290515f80516020613cd88339815191529181900360800190a1600954341461111d5760405162461bcd60e51b8152602060048201526012602482015271125b98dbdc9c9958dd08199959481cd95b9d60721b6044820152606401610738565b60408051818152600b818301526a1199594818da1958dad95960aa1b60608201526001602082015290515f80516020613cd88339815191529181900360800190a15f61119e8784848080601f0160208091040260200160405190810160405280939291908181526020018383808284375f92019190915250612a5392505050565b604080518181526017818301527f66726f6d45787465726e616c207469746c6520646f6e6500000000000000000060608201526002602082015290519192505f80516020613cd8833981519152919081900360800190a15f6112358785858080601f0160208091040260200160405190810160405280939291908181526020018383808284375f92019190915250612a5392505050565b90505f80516020613cd88339815191526003604051611254919061391c565b60405180910390a15f61129c8786868080601f0160208091040260200160405190810160405280939291908181526020018383808284375f92019190915250612a6792505050565b90505f80516020613cd883398151915260046040516112bb9190613966565b60405180910390a15f6113038787878080601f0160208091040260200160405190810160405280939291908181526020018383808284375f92019190915250612a5392505050565b60408051818152601b818301527f66726f6d45787465726e616c206e756d65726963496420646f6e65000000000060608201526005602082015290519192505f80516020613cd8833981519152919081900360800190a15f6040518060c001604052808681526020016113755f612a74565b81526020810186905260408101859052606081018490526080015f9052335f9081526001602081815260408084208054808501825590855293829020855160069095020193845590840151838301558301516002830155606083015160038301556080830151600483015560a083015160058301805494955085949192909160ff191690838181111561140a5761140a6137c3565b021790555050505f60025f8154611420906139b6565b9182905550335f908152600160208190526040822054929350909161144591906139ce565b335f8181526003602090815260408083208584528252808320879055838352600482528083208784529091528082208490555192935084927fb1c0ef93ef5afc0800a5789b004fdaf5931873276c7ccb409e7d1a310906886a9190a350505f80516020613cd883398151915260066040516114c091906139e1565b60405180910390a1335f9081526001602081905260408220805490916114e5916139ce565b815481106114f5576114f5613a1d565b905f5260205f2090600602019050611510815f015433612a8a565b5061151f816002015433612a8a565b5061152e816003015433612a8a565b5061153d816004015433612a8a565b5061154c816001015433612a8a565b50805461155890612a9c565b506115668160020154612a9c565b506115748160030154612a9c565b506115828160040154612a9c565b506115908160010154612a9c565b505f80516020613cd88339815191526007604051610c209190613a31565b5f6115ee8484848080601f0160208091040260200160405190810160405280939291908181526020018383808284375f92019190915250612a5392505050565b90505f6116036115fd42612a74565b83612ab7565b90505f61160f5f612ae5565b335f9081526001602052604081205491925090601411611630576014611640565b335f908152600160205260409020545b90505f5b8181101561173057335f90815260016020526040812080548390811061166c5761166c613a1d565b905f5260205f2090600602016040518060c00160405290815f820154815260200160018201548152602001600282015481526020016003820154815260200160048201548152602001600582015f9054906101000a900460ff1660018111156116d7576116d76137c3565b60018111156116e8576116e86137c3565b8152505090505f6116fd826040015187612af7565b90506117248561171f836117116001612ae5565b61171a5f612ae5565b612b25565b612b39565b94505050600101611644565b506040805160018082528183019092525f916020808301908036833701905050905082815f8151811061176557611765613a1d565b60209081029190910101525f6117828263083ffe6360e01b612aab565b90506117a6604051806060016040528060298152602001613cf86029913982612b59565b5f818152600660205260409081902080546001600160a01b0319163390811790915590517f0fd631f136845886c6a8df7897d4470f9519ee3afcdbeb05ed3855cdcbc6e2a9906117f99084815260200190565b60405180910390a2505050505050505050565b611814612bb7565b5f80546040516001600160a01b039091169047908381818185875af1925050503d805f811461185e576040519150601f19603f3d011682016040523d82523d5f602084013e611863565b606091505b50509050806118b45760405162461bcd60e51b815260206004820152601160248201527f5769746864726177616c206661696c65640000000000000000000000000000006044820152606401610738565b50565b6001600160a01b0381165f90815260016020526040902054821061191d5760405162461bcd60e51b815260206004820152601d60248201527f5461736b20646f6573206e6f7420657869737420666f72206f776e65720000006044820152606401610738565b6001600160a01b0381165f81815260036020908152604080832086845290915290819020549051631a511d9960e01b8152600481018290526024810192909252903090631a511d99906044015b5f604051808303815f87803b158015611981575f80fd5b505af1158015611993573d5f803e3d5ffd5b50505050505050565b6119a4612bb7565b600955565b335f908152600160205260409020548610611a065760405162461bcd60e51b815260206004820152601860248201527f5461736b20696e646578206f7574206f6620626f756e647300000000000000006044820152606401610738565b5f611a468684848080601f0160208091040260200160405190810160405280939291908181526020018383808284375f92019190915250612a5392505050565b90505f611a888685858080601f0160208091040260200160405190810160405280939291908181526020018383808284375f92019190915250612a5392505050565b90505f611aca8686868080601f0160208091040260200160405190810160405280939291908181526020018383808284375f92019190915250612a6792505050565b335f908152600160205260409020805491925084918b908110611aef57611aef613a1d565b5f918252602080832060069092029091019290925533815260019091526040902080548391908b908110611b2557611b25613a1d565b905f5260205f209060060201600201819055508060015f336001600160a01b03166001600160a01b031681526020019081526020015f208a81548110611b6d57611b6d613a1d565b905f5260205f20906006020160030181905550611b8a8333612a8a565b50611b958233612a8a565b50611ba08133612a8a565b50611baa83612a9c565b50611bb482612a9c565b50611bbe81612a9c565b50505050505050505050565b6001602052815f5260405f208181548110611be3575f80fd5b5f91825260209091206006909102018054600182015460028301546003840154600485015460059095015493965091945092909160ff1686565b611c25612bb7565b611c2e5f612be3565b565b60408051818152601a818301527f6372656174655461736b5769746854657874207374617274656400000000000060608201525f602082015290515f80516020613cd88339815191529181900360800190a16009543414611cc85760405162461bcd60e51b8152602060048201526012602482015271125b98dbdc9c9958dd08199959481cd95b9d60721b6044820152606401610738565b60408051818152600b818301526a1199594818da1958dad95960aa1b60608201526001602082015290515f80516020613cd88339815191529181900360800190a15f611d498784848080601f0160208091040260200160405190810160405280939291908181526020018383808284375f92019190915250612a5392505050565b604080518181526017818301527f66726f6d45787465726e616c207469746c6520646f6e6500000000000000000060608201526002602082015290519192505f80516020613cd8833981519152919081900360800190a15f611de08785858080601f0160208091040260200160405190810160405280939291908181526020018383808284375f92019190915250612a5392505050565b60408051818152601d818301527f66726f6d45787465726e616c206465736372697074696f6e20646f6e6500000060608201526003602082015290519192505f80516020613cd8833981519152919081900360800190a15f611e778786868080601f0160208091040260200160405190810160405280939291908181526020018383808284375f92019190915250612a5392505050565b90505f80516020613cd88339815191526004604051611e96919061391c565b60405180910390a15f611ede8787878080601f0160208091040260200160405190810160405280939291908181526020018383808284375f92019190915250612a6792505050565b90505f80516020613cd88339815191526005604051611efd9190613966565b60405180910390a15f6040518060c00160405280868152602001858152602001848152602001838152602001611f325f612a74565b81526020015f9052335f9081526001602081815260408084208054808501825590855293829020855160069095020193845590840151838301558301516002830155606083015160038301556080830151600483015560a083015160058301805494955085949192909160ff1916908381811115611fb257611fb26137c3565b021790555050505f60025f8154611fc8906139b6565b9182905550335f9081526001602081905260408220549293509091611fed91906139ce565b335f8181526003602090815260408083208584528252808320879055838352600482528083208784529091528082208490555192935084927fb1c0ef93ef5afc0800a5789b004fdaf5931873276c7ccb409e7d1a310906886a9190a350505f80516020613cd8833981519152600660405161206891906139e1565b60405180910390a1335f90815260016020819052604082208054909161208d916139ce565b8154811061209d5761209d613a1d565b905f5260205f20906006020190506120b8815f015433612a8a565b506120c7816001015433612a8a565b506120d6816002015433612a8a565b506120e5816003015433612a8a565b5080546120f190612a9c565b506120ff8160010154612a9c565b5061210d8160020154612a9c565b506115908160030154612a9c565b335f9081526001602052604090205482106121785760405162461bcd60e51b815260206004820152601860248201527f5461736b20696e646578206f7574206f6620626f756e647300000000000000006044820152606401610738565b335f90815260036020908152604080832085845290915290205461219c8183610e8a565b505050565b6001600160a01b0382165f9081526004602090815260408083208484529091529020545b92915050565b335f90815260016020526040902054811061221e5760405162461bcd60e51b815260206004820152601360248201527215185cdac8191bd95cc81b9bdd08195e1a5cdd606a1b6044820152606401610738565b335f9081526003602090815260408083208484529091529081902054905163e8dc797760e01b815260048101829052309063e8dc7977906024015f604051808303815f87803b15801561226f575f80fd5b505af1158015612281573d5f803e3d5ffd5b505050505050565b6001600160a01b0381165f908152600760209081526040918290208054835181840281018401909452808452606093928301828280156122e657602002820191905f5260205f20905b8154815260200190600101908083116122d2575b50505050509050919050565b335f90815260016020526040902054811061234f5760405162461bcd60e51b815260206004820152601860248201527f5461736b20696e646578206f7574206f6620626f756e647300000000000000006044820152606401610738565b335f90815260016020819052604090912080548390811061237257612372613a1d565b5f9182526020909120600560069092020101805460ff19166001838181111561239d5761239d6137c3565b021790555050565b6001600160a01b0381165f908152600160209081526040808320805482518185028101850190935280835260609492939192909184015b82821015612475578382905f5260205f2090600602016040518060c00160405290815f820154815260200160018201548152602001600282015481526020016003820154815260200160048201548152602001600582015f9054906101000a900460ff166001811115612451576124516137c3565b6001811115612462576124626137c3565b81525050815260200190600101906123dc565b505050509050919050565b335f818152600460209081526040808320858452825280832054938352600190915290205481106124e95760405162461bcd60e51b815260206004820152601360248201527215185cdac8191bd95cc81b9bdd08195e1a5cdd606a1b6044820152606401610738565b335f90815260016020526040812080548390811061250957612509613a1d565b5f918252602080832060408051600480825260a082019092526006949094029091019450908201608080368337019050508254909150815f8151811061255157612551613a1d565b602090810291909101015260028201548160018151811061257457612574613a1d565b602090810291909101015260038201548160028151811061259757612597613a1d565b60209081029190910101526001820154816003815181106125ba576125ba613a1d565b60209081029190910101525f6125d78263ec74cd1960e01b612aab565b5f818152600660205260409081902080546001600160a01b031916339081179091559051919250907f0fd631f136845886c6a8df7897d4470f9519ee3afcdbeb05ed3855cdcbc6e2a99061262e9084815260200190565b60405180910390a25050505050565b6126488383836129ea565b5f838152600660205260409020546001600160a01b0316806126be5760405162461bcd60e51b815260206004820152602960248201527f52657175657374204944206e6f7420666f756e64206f7220616c7265616479206044820152681c1c9bd8d95cdcd95960ba1b6064820152608401610738565b5f805f80868060200190518101906126d69190613a84565b6040805167ffffffffffffffff86811682528516602082015260ff841681830152905194985092965090945092506001600160a01b038716918a917f8c259954011da9938a760ebc6ef1ea5ab381f0c165e4e4b854217e4820e7ed02919081900360600190a35050505f9485525050600660205250506040902080546001600160a01b0319169055565b612768612bb7565b6001600160a01b03811661279157604051631e4fbdf760e01b81525f6004820152602401610738565b6118b481612be3565b335f818152600460209081526040808320858452825280832054938352600190915290205481106128035760405162461bcd60e51b815260206004820152601360248201527215185cdac8191bd95cc81b9bdd08195e1a5cdd606a1b6044820152606401610738565b335f90815260016020819052604082205461281e91906139ce565b905080821461292b57335f90815260016020526040902080548290811061284757612847613a1d565b905f5260205f20906006020160015f336001600160a01b03166001600160a01b031681526020019081526020015f20838154811061288757612887613a1d565b5f9182526020909120825460069092020190815560018083015481830155600280840154908301556003808401549083015560048084015490830155600580840154908301805460ff90921692909160ff19169083818111156128ec576128ec6137c3565b021790555050335f8181526003602090815260408083208684528252808320548784528184208190559383526004825280832093835292905220839055505b335f90815260016020526040902080548061294857612948613adc565b5f828152602080822060065f19909401938402018281556001810183905560028101839055600380820184905560048083018590556005909201805460ff19169055939094553380835292815260408083209583529481528482208290559181529181528282209482529390935282209190915550565b6007602052815f5260405f2081815481106129d8575f80fd5b905f5260205f20015f91509150505481565b5f6129f484612c32565b90505f612a02828585612d03565b905080612a225760405163cf6c44e960e01b815260040160405180910390fd5b60405185907f1af0453083661051f6e56e5c070792320652e612154bf9af8637bb1e7655b99d905f90a25050505050565b5f612a6083836005612def565b9392505050565b5f612a6083836002612def565b5f6121c58267ffffffffffffffff166005612f0f565b5f612a958383612fc4565b5090919050565b5f612aa78230612fc4565b5090565b5f612a6083835f61301d565b5f82612ac957612ac65f612a74565b92505b81612ada57612ad75f612a74565b91505b612a6083835f61314b565b5f6121c58263ffffffff166004612f0f565b5f82612b0957612b065f612a74565b92505b81612b1a57612b175f612a74565b91505b612a6083835f613246565b5f612b318484846132fb565b949350505050565b5f82612b4b57612b485f612ae5565b92505b81612ada57612ad75f612ae5565b612bb38282604051602401612b6f929190613b3d565b60408051601f198184030181529190526020810180517bffffffffffffffffffffffffffffffffffffffffffffffffffffffff16632d839cb360e21b1790526133a4565b5050565b5f546001600160a01b03163314611c2e5760405163118cdaa760e01b8152336004820152602401610738565b5f80546001600160a01b038381166001600160a01b0319831681178455604051919092169283917f8be0079c531659141344cd1fd0a4f28419497f9722a3daafe3b4186f6b6457e09190a35050565b5f8181527f878245876662ba28a480c5ea71726db859fb50222b0a3d7cbbc21cfa336faf0160205260408120546060917f878245876662ba28a480c5ea71726db859fb50222b0a3d7cbbc21cfa336faf00919003612ca35760405163d66ca67560e01b815260040160405180910390fd5b5f83815260018201602090815260409182902080548351818402810184019094528084529091830182828015612cf657602002820191905f5260205f20905b815481526020019060010190808311612ce2575b5050505050915050919050565b5f8083516020612d139190613b5e565b612d1e906020613b5e565b90505f8482604051602001612d34929190613b71565b60405160208183030381529060405290505f612d6d7f9e7b61f58c47dc699ac88507c4f5bb9f121c03808c5676a8078fe583e464970090565b60038101546040516378542ead60e01b81529192506001600160a01b0316906378542ead90612da4908a9086908a90600401613bcc565b6020604051808303815f875af1158015612dc0573d5f803e3d5ffd5b505050506040513d601f19601f82011682018060405250810190612de49190613c04565b979650505050505050565b7f9e7b61f58c47dc699ac88507c4f5bb9f121c03808c5676a8078fe583e46497015460405163196d0b9b60e01b81525f917f9e7b61f58c47dc699ac88507c4f5bb9f121c03808c5676a8078fe583e4649700916001600160a01b039091169063196d0b9b90612e68908890339089908990600401613c33565b6020604051808303815f875af1158015612e84573d5f803e3d5ffd5b505050506040513d601f19601f82011682018060405250810190612ea89190613c69565b8154604051630f8e573b60e21b8152600481018390523360248201529193506001600160a01b031690633e395cec906044015f604051808303815f87803b158015612ef1575f80fd5b505af1158015612f03573d5f803e3d5ffd5b50505050509392505050565b7f9e7b61f58c47dc699ac88507c4f5bb9f121c03808c5676a8078fe583e464970154604051639cd07acb60e01b81525f917f9e7b61f58c47dc699ac88507c4f5bb9f121c03808c5676a8078fe583e4649700916001600160a01b0390911690639cd07acb90612f849087908790600401613c80565b6020604051808303815f875af1158015612fa0573d5f803e3d5ffd5b505050506040513d601f19601f82011682018060405250810190612b319190613c69565b7f9e7b61f58c47dc699ac88507c4f5bb9f121c03808c5676a8078fe583e46497008054604051635ca4b5b160e11b8152600481018590526001600160a01b0384811660248301529091169063b9496b629060440161196a565b7f878245876662ba28a480c5ea71726db859fb50222b0a3d7cbbc21cfa336faf0080547f9e7b61f58c47dc699ac88507c4f5bb9f121c03808c5676a8078fe583e46497008054604051637d6e912360e11b81529293926001600160a01b039091169063fadd224690613093908990600401613c94565b5f604051808303815f87803b1580156130aa575f80fd5b505af11580156130bc573d5f803e3d5ffd5b5050506002820154604051633263b83b60e01b81526001600160a01b039091169150633263b83b9086906130f89087908b908b90600401613ca6565b5f604051808303818588803b15801561310f575f80fd5b505af1158015613121573d5f803e3d5ffd5b505050505061313083876133ad565b8154825f61313d836139b6565b919050555050509392505050565b5f80821561315e5750600160f81b613161565b505f5b7f9e7b61f58c47dc699ac88507c4f5bb9f121c03808c5676a8078fe583e46497015460405163022f65e760e31b815260048101879052602481018690527fff00000000000000000000000000000000000000000000000000000000000000831660448201527f9e7b61f58c47dc699ac88507c4f5bb9f121c03808c5676a8078fe583e4649700916001600160a01b03169063117b2f38906064015b6020604051808303815f875af1158015613218573d5f803e3d5ffd5b505050506040513d601f19601f8201168201806040525081019061323c9190613c69565b9695505050505050565b5f8082156132595750600160f81b61325c565b505f5b7f9e7b61f58c47dc699ac88507c4f5bb9f121c03808c5676a8078fe583e464970154604051631d44e90160e21b815260048101879052602481018690527fff00000000000000000000000000000000000000000000000000000000000000831660448201527f9e7b61f58c47dc699ac88507c4f5bb9f121c03808c5676a8078fe583e4649700916001600160a01b031690637513a404906064016131fc565b5f807f9e7b61f58c47dc699ac88507c4f5bb9f121c03808c5676a8078fe583e46497006001810154604051637702dcff60e01b81526004810188905260248101879052604481018690529192506001600160a01b031690637702dcff906064016020604051808303815f875af1158015613377573d5f803e3d5ffd5b505050506040513d601f19601f8201168201806040525081019061339b9190613c69565b95945050505050565b6118b481613440565b5f8281527f878245876662ba28a480c5ea71726db859fb50222b0a3d7cbbc21cfa336faf0160205260409020547f878245876662ba28a480c5ea71726db859fb50222b0a3d7cbbc21cfa336faf00901561341a57604051633f06d22b60e01b815260040160405180910390fd5b5f8381526001820160209081526040909120835161343a9285019061345f565b50505050565b5f6a636f6e736f6c652e6c6f6790505f80835160208501845afa505050565b828054828255905f5260205f20908101928215613498579160200282015b8281111561349857825182559160200191906001019061347d565b50612aa79291505b80821115612aa7575f81556001016134a0565b5f602082840312156134c3575f80fd5b5035919050565b634e487b7160e01b5f52604160045260245ffd5b5f82601f8301126134ed575f80fd5b813567ffffffffffffffff80821115613508576135086134ca565b604051601f8301601f19908116603f01168101908282118183101715613530576135306134ca565b81604052838152866020858801011115613548575f80fd5b836020870160208301375f602085830101528094505050505092915050565b5f805f60608486031215613579575f80fd5b83359250602084013567ffffffffffffffff80821115613597575f80fd5b6135a3878388016134de565b935060408601359150808211156135b8575f80fd5b506135c5868287016134de565b9150509250925092565b5f8083601f8401126135df575f80fd5b50813567ffffffffffffffff8111156135f6575f80fd5b60208301915083602082850101111561360d575f80fd5b9250929050565b5f805f805f60808688031215613628575f80fd5b853594506020860135935060408601359250606086013567ffffffffffffffff811115613653575f80fd5b61365f888289016135cf565b969995985093965092949392505050565b80356001600160a01b0381168114613686575f80fd5b919050565b5f805f6060848603121561369d575f80fd5b6136a684613670565b92506136b460208501613670565b9150604084013590509250925092565b5f80604083850312156136d5575f80fd5b823591506136e560208401613670565b90509250929050565b5f805f805f8060a08789031215613703575f80fd5b86359550602087013594506040870135935060608701359250608087013567ffffffffffffffff811115613735575f80fd5b61374189828a016135cf565b979a9699509497509295939492505050565b5f805f60408486031215613765575f80fd5b83359250602084013567ffffffffffffffff811115613782575f80fd5b61378e868287016135cf565b9497909650939450505050565b5f80604083850312156137ac575f80fd5b6137b583613670565b946020939093013593505050565b634e487b7160e01b5f52602160045260245ffd5b600281106137e7576137e76137c3565b9052565b5f60c082019050878252866020830152856040830152846060830152836080830152612de460a08301846137d7565b5f6020828403121561382a575f80fd5b612a6082613670565b602080825282518282018190525f9190848201906040850190845b8181101561386a5783518352928401929184019160010161384e565b50909695505050505050565b602080825282518282018190525f919060409081850190868401855b828110156138ec5781518051855286810151878601528581015186860152606080820151908601526080808201519086015260a090810151906138d7818701836137d7565b505060c0939093019290850190600101613892565b5091979650505050505050565b5f60208284031215613909575f80fd5b815163ffffffff81168114612a60575f80fd5b604081525f61395860408301601981527f66726f6d45787465726e616c206475654461746520646f6e6500000000000000602082015260400190565b905082602083015292915050565b604081525f61395860408301601a81527f66726f6d45787465726e616c207072696f7269747920646f6e65000000000000602082015260400190565b634e487b7160e01b5f52601160045260245ffd5b5f600182016139c7576139c76139a2565b5060010190565b818103818111156121c5576121c56139a2565b604081525f61395860408301600b81527f5461736b20707573686564000000000000000000000000000000000000000000602082015260400190565b634e487b7160e01b5f52603260045260245ffd5b604081525f61395860408301601381527f5065726d697373696f6e73206772616e74656400000000000000000000000000602082015260400190565b805167ffffffffffffffff81168114613686575f80fd5b5f805f8060808587031215613a97575f80fd5b613aa085613a6d565b9350613aae60208601613a6d565b9250604085015160ff81168114613ac3575f80fd5b9150613ad160608601613a6d565b905092959194509250565b634e487b7160e01b5f52603160045260245ffd5b5f5b83811015613b0a578181015183820152602001613af2565b50505f910152565b5f8151808452613b29816020860160208601613af0565b601f01601f19169290920160200192915050565b604081525f613b4f6040830185613b12565b90508260208301529392505050565b808201808211156121c5576121c56139a2565b5f8351613b82818460208801613af0565b9190910191825250602001919050565b5f815180845260208085019450602084015f5b83811015613bc157815187529582019590820190600101613ba5565b509495945050505050565b606081525f613bde6060830186613b92565b8281036020840152613bf08186613b12565b9050828103604084015261323c8185613b12565b5f60208284031215613c14575f80fd5b81518015158114612a60575f80fd5b605481106137e7576137e76137c3565b8481526001600160a01b0384166020820152608060408201525f613c5a6080830185613b12565b905061339b6060830184613c23565b5f60208284031215613c79575f80fd5b5051919050565b82815260408101612a606020830184613c23565b602081525f612a606020830184613b92565b838152606060208201525f613cbe6060830185613b92565b905063ffffffff60e01b8316604083015294935050505056fe3c5ad147104e56be34a9176a6692f7df8d2f4b29a5af06bc6b98970d329d65774648452e7265717565737444656372797074696f6e2063616c6c65642c207265717565737449643a20a164736f6c6343000818000a",
  "devdoc": {
    "errors": {
      "OwnableInvalidOwner(address)": [
        {
          "details": "The owner is not a valid owner account. (eg. `address(0)`)"
        }
      ],
      "OwnableUnauthorizedAccount(address)": [
        {
          "details": "The caller account is not authorized to perform an operation."
        }
      ]
    },
    "events": {
      "TaskDecrypted(uint256,address,uint64,uint64,uint8)": {
        "details": "Event emitted when a task is successfully decrypted"
      }
    },
    "kind": "dev",
    "methods": {
      "createTask(bytes32,bytes32,bytes32,bytes)": {
        "details": "Creates a new confidential task for the caller.",
        "params": {
          "encryptedDueDate": "The encrypted due date of the task.",
          "encryptedPriority": "The encrypted priority of the task (e.g., 1-5).",
          "encryptedTitle": "The encrypted title of the task.",
          "inputProof": "The ZK proof for the encrypted inputs."
        }
      },
      "createTaskWithNumbers(bytes32,bytes32,bytes32,bytes32,bytes)": {
        "details": "Creates a new confidential task with numeric title and ID.",
        "params": {
          "encryptedDueDate": "The encrypted due date of the task.",
          "encryptedNumericId": "The encrypted numeric ID for the task.",
          "encryptedPriority": "The encrypted priority of the task (1-5).",
          "encryptedTitle": "The encrypted title of the task (as number).",
          "inputProof": "The ZK proof for the encrypted inputs."
        }
      },
      "createTaskWithText(bytes32,bytes32,bytes32,bytes32,bytes)": {
        "details": "Creates a new confidential task with text title and description.",
        "params": {
          "encryptedDescription": "The encrypted description of the task (as number).",
          "encryptedDueDate": "The encrypted due date of the task.",
          "encryptedPriority": "The encrypted priority of the task (1-5).",
          "encryptedTitle": "The encrypted title of the task (as number).",
          "inputProof": "The ZK proof for the encrypted inputs."
        }
      },
      "owner()": {
        "details": "Returns the address of the current owner."
      },
      "renounceOwnership()": {
        "details": "Leaves the contract without owner. It will not be possible to call `onlyOwner` functions. Can only be called by the current owner. NOTE: Renouncing ownership will leave the contract without an owner, thereby disabling any functionality that is only available to the owner."
      },
      "requestSharedTaskDecryptionById(uint256,address)": {
        "details": "Requests decryption of a shared task (for recipients) using stable taskId. This allows users to decrypt tasks that were shared with them.",
        "params": {
          "originalOwner": "The address of the task's original owner",
          "taskId": "The stable task identifier"
        }
      },
      "requestTaskDecryptionById(uint256)": {
        "details": "Requests decryption of a specific task for the caller (by stable taskId). This function initiates the decryption process for FHEVM encrypted data.",
        "params": {
          "taskId": "The stable task identifier"
        }
      },
      "setFee(uint256)": {
        "details": "Sets a new fee for task creation. Only callable by the owner.",
        "params": {
          "_newFee": "The new fee in wei."
        }
      },
      "taskDecryptionCallback(uint256,bytes,bytes)": {
        "details": "Callback function called by the relayer after decryption. This function receives the decrypted data and can process it.",
        "params": {
          "cleartexts": "The decrypted data",
          "decryptionProof": "The proof of decryption",
          "requestId": "The ID of the decryption request"
        }
      },
      "transferOwnership(address)": {
        "details": "Transfers ownership of the contract to a new account (`newOwner`). Can only be called by the current owner."
      },
      "withdraw()": {
        "details": "Withdraws the entire contract balance to the owner's address."
      }
    },
    "version": 1
  },
  "userdoc": {
    "errors": {
      "HandlesAlreadySavedForRequestID()": [
        {
          "notice": "Returned if some handles were already saved for corresponding ID."
        }
      ],
      "InvalidKMSSignatures()": [
        {
          "notice": "Returned if the returned KMS signatures are not valid."
        }
      ],
      "NoHandleFoundForRequestID()": [
        {
          "notice": "Returned if there was not handle found for the requested ID."
        }
      ]
    },
    "events": {
      "DecryptionFulfilled(uint256)": {
        "notice": "This event is emitted when requested decryption has been fulfilled."
      }
    },
    "kind": "user",
    "methods": {},
    "version": 1
  },
  "storageLayout": {
    "storage": [
      {
        "astId": 39029,
        "contract": "contracts/TaskManager.sol:TaskManager",
        "label": "_owner",
        "offset": 0,
        "slot": "0",
        "type": "t_address"
      },
      {
        "astId": 39357,
        "contract": "contracts/TaskManager.sol:TaskManager",
        "label": "tasks",
        "offset": 0,
        "slot": "1",
        "type": "t_mapping(t_address,t_array(t_struct(Task)39351_storage)dyn_storage)"
      },
      {
        "astId": 39359,
        "contract": "contracts/TaskManager.sol:TaskManager",
        "label": "_nextTaskId",
        "offset": 0,
        "slot": "2",
        "type": "t_uint256"
      },
      {
        "astId": 39365,
        "contract": "contracts/TaskManager.sol:TaskManager",
        "label": "indexToTaskId",
        "offset": 0,
        "slot": "3",
        "type": "t_mapping(t_address,t_mapping(t_uint256,t_uint256))"
      },
      {
        "astId": 39371,
        "contract": "contracts/TaskManager.sol:TaskManager",
        "label": "taskIdToIndex",
        "offset": 0,
        "slot": "4",
        "type": "t_mapping(t_address,t_mapping(t_uint256,t_uint256))"
      },
      {
        "astId": 39375,
        "contract": "contracts/TaskManager.sol:TaskManager",
        "label": "lastDueSoonCount",
        "offset": 0,
        "slot": "5",
        "type": "t_mapping(t_address,t_uint32)"
      },
      {
        "astId": 39379,
        "contract": "contracts/TaskManager.sol:TaskManager",
        "label": "requestInitiator",
        "offset": 0,
        "slot": "6",
        "type": "t_mapping(t_uint256,t_address)"
      },
      {
        "astId": 39384,
        "contract": "contracts/TaskManager.sol:TaskManager",
        "label": "sharedTasks",
        "offset": 0,
        "slot": "7",
        "type": "t_mapping(t_address,t_array(t_uint256)dyn_storage)"
      },
      {
        "astId": 39392,
        "contract": "contracts/TaskManager.sol:TaskManager",
        "label": "isTaskSharedWith",
        "offset": 0,
        "slot": "8",
        "type": "t_mapping(t_address,t_mapping(t_address,t_mapping(t_uint256,t_bool)))"
      },
      {
        "astId": 39395,
        "contract": "contracts/TaskManager.sol:TaskManager",
        "label": "taskCreationFee",
        "offset": 0,
        "slot": "9",
        "type": "t_uint256"
      }
    ],
    "types": {
      "t_address": {
        "encoding": "inplace",
        "label": "address",
        "numberOfBytes": "20"
      },
      "t_array(t_struct(Task)39351_storage)dyn_storage": {
        "base": "t_struct(Task)39351_storage",
        "encoding": "dynamic_array",
        "label": "struct TaskManager.Task[]",
        "numberOfBytes": "32"
      },
      "t_array(t_uint256)dyn_storage": {
        "base": "t_uint256",
        "encoding": "dynamic_array",
        "label": "uint256[]",
        "numberOfBytes": "32"
      },
      "t_bool": {
        "encoding": "inplace",
        "label": "bool",
        "numberOfBytes": "1"
      },
      "t_enum(TaskStatus)39332": {
        "encoding": "inplace",
        "label": "enum TaskManager.TaskStatus",
        "numberOfBytes": "1"
      },
      "t_mapping(t_address,t_array(t_struct(Task)39351_storage)dyn_storage)": {
        "encoding": "mapping",
        "key": "t_address",
        "label": "mapping(address => struct TaskManager.Task[])",
        "numberOfBytes": "32",
        "value": "t_array(t_struct(Task)39351_storage)dyn_storage"
      },
      "t_mapping(t_address,t_array(t_uint256)dyn_storage)": {
        "encoding": "mapping",
        "key": "t_address",
        "label": "mapping(address => uint256[])",
        "numberOfBytes": "32",
        "value": "t_array(t_uint256)dyn_storage"
      },
      "t_mapping(t_address,t_mapping(t_address,t_mapping(t_uint256,t_bool)))": {
        "encoding": "mapping",
        "key": "t_address",
        "label": "mapping(address => mapping(address => mapping(uint256 => bool)))",
        "numberOfBytes": "32",
        "value": "t_mapping(t_address,t_mapping(t_uint256,t_bool))"
      },
      "t_mapping(t_address,t_mapping(t_uint256,t_bool))": {
        "encoding": "mapping",
        "key": "t_address",
        "label": "mapping(address => mapping(uint256 => bool))",
        "numberOfBytes": "32",
        "value": "t_mapping(t_uint256,t_bool)"
      },
      "t_mapping(t_address,t_mapping(t_uint256,t_uint256))": {
        "encoding": "mapping",
        "key": "t_address",
        "label": "mapping(address => mapping(uint256 => uint256))",
        "numberOfBytes": "32",
        "value": "t_mapping(t_uint256,t_uint256)"
      },
      "t_mapping(t_address,t_uint32)": {
        "encoding": "mapping",
        "key": "t_address",
        "label": "mapping(address => uint32)",
        "numberOfBytes": "32",
        "value": "t_uint32"
      },
      "t_mapping(t_uint256,t_address)": {
        "encoding": "mapping",
        "key": "t_uint256",
        "label": "mapping(uint256 => address)",
        "numberOfBytes": "32",
        "value": "t_address"
      },
      "t_mapping(t_uint256,t_bool)": {
        "encoding": "mapping",
        "key": "t_uint256",
        "label": "mapping(uint256 => bool)",
        "numberOfBytes": "32",
        "value": "t_bool"
      },
      "t_mapping(t_uint256,t_uint256)": {
        "encoding": "mapping",
        "key": "t_uint256",
        "label": "mapping(uint256 => uint256)",
        "numberOfBytes": "32",
        "value": "t_uint256"
      },
      "t_struct(Task)39351_storage": {
        "encoding": "inplace",
        "label": "struct TaskManager.Task",
        "members": [
          {
            "astId": 39335,
            "contract": "contracts/TaskManager.sol:TaskManager",
            "label": "title",
            "offset": 0,
            "slot": "0",
            "type": "t_userDefinedValueType(euint64)41517"
          },
          {
            "astId": 39338,
            "contract": "contracts/TaskManager.sol:TaskManager",
            "label": "description",
            "offset": 0,
            "slot": "1",
            "type": "t_userDefinedValueType(euint64)41517"
          },
          {
            "astId": 39341,
            "contract": "contracts/TaskManager.sol:TaskManager",
            "label": "dueDate",
            "offset": 0,
            "slot": "2",
            "type": "t_userDefinedValueType(euint64)41517"
          },
          {
            "astId": 39344,
            "contract": "contracts/TaskManager.sol:TaskManager",
            "label": "priority",
            "offset": 0,
            "slot": "3",
            "type": "t_userDefinedValueType(euint8)41503"
          },
          {
            "astId": 39347,
            "contract": "contracts/TaskManager.sol:TaskManager",
            "label": "numericId",
            "offset": 0,
            "slot": "4",
            "type": "t_userDefinedValueType(euint64)41517"
          },
          {
            "astId": 39350,
            "contract": "contracts/TaskManager.sol:TaskManager",
            "label": "status",
            "offset": 0,
            "slot": "5",
            "type": "t_enum(TaskStatus)39332"
          }
        ],
        "numberOfBytes": "192"
      },
      "t_uint256": {
        "encoding": "inplace",
        "label": "uint256",
        "numberOfBytes": "32"
      },
      "t_uint32": {
        "encoding": "inplace",
        "label": "uint32",
        "numberOfBytes": "4"
      },
      "t_userDefinedValueType(euint64)41517": {
        "encoding": "inplace",
        "label": "euint64",
        "numberOfBytes": "32"
      },
      "t_userDefinedValueType(euint8)41503": {
        "encoding": "inplace",
        "label": "euint8",
        "numberOfBytes": "32"
      }
    }
  }
}